:100000000C9434000C940E010C9451000C9451008B
:100010000C9451000C9451000C9451000C9451001C
:100020000C9451000C9451000C9451000C9451000C
:100030000C9451000C9451000C9451000C945100FC
:100040000C9451000C9451000C9453000C945100EA
:100050000C9451000C9451000C9451000C945100DC
:100060000C9451000C94510011241FBECFEFD8E026
:10007000DEBFCDBF11E0A0E0B1E0E6ECF2E102C0EE
:1000800005900D92A033B107D9F716E0A0E3B1E0D7
:1000900001C01D92A537B107E1F70E946D050C94D0
:1000A00061090C9400001F920F920FB60F92112459
:1000B0008F939F93EF93FF938091C600909173016C
:1000C00091111FC08A3091F08D3081F090917201B2
:1000D000903260F4E0917201F0E0EF5AFE4F8083BD
:1000E000809172018F5F809372010BC0E091720169
:1000F000F0E0EF5AFE4F10821092720181E080937F
:100100007301FF91EF919F918F910F900FBE0F9010
:100110001F9018951092C50080E18093C400E0EC18
:10012000F0E080818260808386E08093C20088E96D
:100130008093C1000895813011F482E003C08230C1
:1001400071F481E08093650684E08093810193E0FF
:100150009093670695E0909364068093620664B17D
:1001600081E090E0AC010090640602C0440F551F8E
:100170000A94E2F79C010090670602C0220F331F29
:100180000A94E2F7422B462B9C010090650602C0C0
:10019000220F331F0A94E2F7422B0090620602C03E
:1001A000880F991F0A94E2F7482B44B995B1922B16
:1001B00095B995B1982B95B980E58CBD8DB58160C9
:1001C0008DBD08958EBD0DB407FEFDCF8EB508958B
:1001D000579A209A52985A9A0E948A002DE088E1F4
:1001E00090E00FB6F894A895809360000FBE20931E
:1001F0006000E9E6F0E0808188608083E89A789486
:1002000008955F9A08955F9808958BB180588BB9CF
:10021000089585B191E0892785B908951F920F92BD
:100220000FB60F921124BF92CF92DF92EF92FF92FE
:100230000F931F932F933F934F935F936F937F93EE
:100240008F939F93AF93BF93CF93DF93EF93FF93DE
:100250000E940901809163068F3510F010926306A9
:1002600080EB0E94D703F82E86FF75C085B121E090
:1002700030E00090650602C0220F331F0A94E2F7B7
:100280002095282325B980E90E94E2008FEF0E9483
:10029000E20098E0899F800111248FEF0E94E20024
:1002A000829586958770082B8FEF0E94E2008FEF72
:1002B0000E94E2008FEF0E94E2003FE0E32EE8227E
:1002C000C0E0D0E04DE0B42E11C0C0906306D12C48
:1002D0008FEF0E94E200BC9CF001BD9CF00D112448
:1002E000EE57FE4FEC0FFD1F84832196CE1568F369
:1002F000A09163069DE09A9FD0011124AE57BE4F96
:100300001396EC92A09163069A9FD0011124AE57E8
:10031000BE4F11961C930E93E09163069E9FF001D1
:100320001124EE57FE4F81E0848785B121E030E053
:100330000090650602C0220F331F0A94E2F7822B59
:1003400085B940E061E08CE20E945604809163062A
:100350008F5F80936306F7FE75C025B181E090E062
:100360000090650602C0880F991F0A94E2F78095F5
:10037000822385B984E90E94E2008FEF0E94E200A7
:1003800098E0899F800111248FEF0E94E2008295FE
:1003900086958770082B8FEF0E94E2008FEF0E94F6
:1003A000E2008FEF0E94E2009FE0D92ED822C0E049
:1003B000D0E02DE0C22E11C0E0906306F12C8FEF4B
:1003C0000E94E200CE9CF001CF9CF00D1124EE576C
:1003D000FE4FEC0FFD1F84832196CD1568F3A0918D
:1003E00063069DE09A9FD0011124AE57BE4F13962D
:1003F000DC92A09163069A9FD0011124AE57BE4FA4
:1004000011961C930E93E09163069E9FF0011124B8
:10041000EE57FE4F81E0848725B181E090E00090A7
:10042000650602C0880F991F0A94E2F7282B25B9A8
:1004300040E062E08CE20E945604809163068F5F88
:1004400080936306FF91EF91DF91CF91BF91AF91C0
:100450009F918F917F916F915F914F913F912F91DC
:100460001F910F91FF90EF90DF90CF90BF900F9072
:100470000FBE0F901F9018959091C00095FFFCCF74
:100480008093C60008951F93CF93DF93EC0110E093
:1004900003C01F5F0E943C02FE01E10FF11D80813D
:1004A0008111F7CF8DE00E943C028AE0DF91CF916D
:1004B0001F910C943C02CF93DF93EC018A3091059D
:1004C0007CF06AE070E00E94240626EF2603C0015B
:1004D000279F900D1124C80FD91FCB010E945B02EA
:1004E0008C2F805DDF91CF910C943C02E82FF0E0DF
:1004F000E050FF4F80810C943C028F700C94760288
:10050000CF93C82F82958F700E9476028C2F8F70A8
:10051000CF910C947602CF93DF93EC018D2F8F70E7
:100520000E947602CE0154E0969587955A95E1F7A0
:100530008F700E9476028C2F8F70DF91CF910C9478
:10054000760220E030E004C03F5F461301C02F5F19
:10055000FC01E30FF11D40814111F6CF822F089578
:1005600020E003C0361749F02F5FFC01E20FF11DB8
:1005700030813111F7CFE0E0F0E0CF010895FC01C8
:1005800020E030E018C0C90164E0880F991F6A9527
:10059000E1F74A3344F04F7D242F332727FD309570
:1005A0002753310906C0242F332727FD30952053C8
:1005B0003109280F391F4191442311F04C3219F7AA
:1005C000C9010895FC0120E030E018C0C90174E0C1
:1005D000880F991F7A95E1F74A3344F04F7D242F15
:1005E000332727FD30952753310906C0242F3327A1
:1005F00027FD309520533109280F391F419144239D
:1006000011F04C3219F7C90108959F92AF92BF9231
:10061000CF92DF92EF92FF920F931F93CF93DF93CE
:10062000CDB7DEB728970FB6F894DEBF0FBECDBFAB
:100630006CE281E591E00E94A102982F93509830DE
:1006400008F04DC090915401292F2153283008F013
:1006500046C0F0ED9F2E990E292D30E090E00297D4
:1006600028173907E1F56CE281E591E00E94B002BC
:100670008C010D5F1F4FC8010E94BF025C010197F2
:100680008115984060F5CC24C394D12CCC0EDD1E8E
:1006900076010DC06CE2C8010E94B0028C010F5FB0
:1006A0001F4FC8010E94BF02F70181937F018E2D69
:1006B0008C19891578F3F894B0926906A0926806AF
:1006C00090926B0688E0FE013196ACE6B6E00190B0
:1006D0000D928A95E1F781E08093740678942896CC
:1006E0000FB6F894DEBF0FBECDBFDF91CF911F9143
:1006F0000F91FF90EF90DF90CF90BF90AF909F90C1
:10070000089581E191E09F938F938DE191E09F9314
:100710008F9380E391E09F938F930E948C060F90BC
:100720000F900F900F900F900F9080E391E00C943A
:1007300043020F931F93CF93DF936CE281E591E027
:100740000E94A102823071F56CE281E591E00E9485
:10075000B002EC012196CE010E944C068C016CE2A5
:10076000CE010E94B00201960E944C06982F915033
:100770009230C0F4E8010D37110559F00A3F110518
:1007800041F0043F91E0190721F0083E93E019077A
:1007900049F40E949B00CE01DF91CF911F910F91F0
:1007A0000C949004DF91CF911F910F910895CF93F6
:1007B000DF9395B1C1E0D0E09E010090650602C0D4
:1007C000220F331F0A94E2F72095292325B90E94AE
:1007D000E2008FEF0E94E20095B10090650602C032
:1007E000CC0FDD1F0A94E2F79C2B95B9DF91CF91D6
:1007F0000895EF92FF921F93CF93DF931F92CDB78F
:10080000DEB7182F85B1EE24E394F12C9701009008
:10081000650602C0220F331F0A94E2F720952823B1
:1008200025B982E069830E94E200812F0E94E200E4
:100830006981862F0E94E20085B10090650602C0A2
:10084000EE0CFF1C0A94E2F78E2985B90F90DF9118
:10085000CF911F91FF90EF9008951F93CF93DF9357
:10086000182F85B1C1E0D0E09E010090650602C05E
:10087000220F331F0A94E2F72095282325B983E03D
:100880000E94E200812F0E94E2008FEF0E94E200AE
:1008900095B10090650602C0CC0FDD1F0A94E2F707
:1008A0009C2B95B9DF91CF911F910895EF92FF9204
:1008B0001F93CF93DF9300D0CDB7DEB7182F85B14C
:1008C000EE24E394F12C97010090650602C0220FFC
:1008D000331F0A94E2F72095282325B985E04A833F
:1008E00069830E94E200812F0E94E2006981862FC5
:1008F0000E94E2004A81842F0E94E20085B10090AC
:10090000650602C0EE0CFF1C0A94E2F78E2985B939
:100910000F900F90DF91CF911F91FF90EF9008956E
:100920000F931F93CF93DF93EC0125B101E010E00B
:10093000C8010090650602C0880F991F0A94E2F76B
:100940008095822385B980EC0E94E2008FE99FE0C8
:100950000197F1F700C0000085B10090650602C064
:10096000000F111F0A94E2F7802B85B98FE39CE9F1
:100970000197F1F700C00000CD37D10511F467E011
:100980000FC0CA3FD10511F463E00AC0C43F91E033
:10099000D90711F461E004C0C83ED34061F460E0BF
:1009A0008AE20E94F90360E989E20E94F90362E0A9
:1009B00088E20E94F90363E08BE20E94F90360E69B
:1009C00080E60E94F90360E680E70E94F90360E098
:1009D00080E20E94F90360E081E20E94F90360E096
:1009E00082E20E94F90360E083E20E94F90360E082
:1009F00084E20E94F90360E085E20E94F90360E06E
:100A000086E20E94F90360E087E20E94F90360E059
:100A10008CE00E94F90360E08DE00E94F90340E061
:100A200060EE8FE0DF91CF911F910F910C945604EF
:100A3000FF920F931F93CF93DF93EC01FB806881AC
:100A4000798133E0769567953A95E1F781E30E94E5
:100A5000F90368816295660F607E82E30E94F90364
:100A60008A816F2D882329F0606485E30E94F90351
:100A700012C085E30E94F90300E010E009C0FE0106
:100A8000E00FF11F64818A5C0E94F9030F5F1F4F22
:100A9000802F0F15A0F325B1C1E0D0E0CE0100906A
:100AA000650602C0880F991F0A94E2F78095822399
:100AB00085B981E80E94E20085B10090650602C018
:100AC000CC0FDD1F0A94E2F78C2B85B981E0DF9112
:100AD000CF911F910F91FF9008951092660610928A
:100AE000630680E090E02DE0289FF001299FF00D43
:100AF0001124EE57FE4F148601968F359105A1F70C
:100B000010927406109280010E94E800ADE0DA2E87
:100B1000B8E7EB2EB1E0FB2EA895809173018823F6
:100B200031F180917406811122C065E271E081E5A6
:100B300091E00E946A06892B11F00E9481036AE20B
:100B400071E081E591E00E946A06892B11F00E9414
:100B500005036DE271E081E591E00E946A06892B50
:100B600011F00E9499030E94050110927301F894FC
:100B700080917406882331F088E696E00E9418057B
:100B800010927406E0916606DE9EF0011124EE5785
:100B9000FE4F8485882309F449C0E0916606DE9EF5
:100BA000F0011124EE57FE4FA4E7B1E08D2D019026
:100BB0000D928A95E1F7E0916606DE9EF001112420
:100BC000EE57FE4F1486789484E20E943C0286E43D
:100BD0000E943C02C0907701C0917401D0917501D0
:100BE0001D2F1F708C2D8295807F182B812F0E94C6
:100BF0003C028C2F0E943C02CE01810F911D8C0182
:100C0000C8E7D1E006C0B9908B2D0E943C020B0DC5
:100C1000111D8C2F8E198C15B0F3802F0E943C0271
:100C20008DE00E943C028AE00E943C027894F89495
:100C300080916606982F9F5F909366068F3510F01F
:100C400010926606789468CF97FB072E16F40094EE
:100C500007D077FD09D00E94380607FC05D03EF486
:100C6000909581959F4F0895709561957F4F089558
:100C7000AA1BBB1B51E107C0AA1FBB1FA617B707C2
:100C800010F0A61BB70B881F991F5A95A9F78095DE
:100C90009095BC01CD010895FC0188279927E8941F
:100CA00021912032E9F3293010F02E30C8F32B3295
:100CB00041F02D3239F4689404C00E948406820FFA
:100CC000911D219120532A30C0F31EF490958195F7
:100CD0009F4F0895FB0151915523A9F0BF01DC01FD
:100CE0004D9145174111E1F759F4CD0101900020D4
:100CF00049F04D9140154111C9F3FB014111EFCF6E
:100D000081E090E0019708957AE0979F902D879F6A
:100D1000802D910D11240895AEE0B0E0E2E9F6E0F7
:100D20000C9438090D891E8986E08C831A83098307
:100D30008FEF9FE79E838D83CE014996AC016F892B
:100D4000788DCE0101960E94AE06EF81F885E00F06
:100D5000F11F10822E96E4E00C945409ACE0B0E050
:100D6000E4EBF6E00C942A097C016B018A01FC019A
:100D700017821682838181FFC6C188248394912CB7
:100D80008C0E9D1EF7019381F60193FD859193FFD3
:100D900081916F01882309F4B2C1853239F493FD42
:100DA000859193FF81916F01853229F4B70190E01D
:100DB0000E94A008E7CF512C312C20E02032A8F46B
:100DC0008B3261F028F4803251F0833271F40BC021
:100DD0008D3239F0803349F4216028C022602460CC
:100DE00025C0286023C0206121C027FD27C0382FDF
:100DF00030533A3078F426FF06C0FAE05F9E300D9B
:100E00001124532E13C08AE0389E300D1124332E46
:100E100020620CC08E3221F426FD71C1206406C010
:100E20008C3611F4206802C0883641F4F60193FD37
:100E3000859193FF81916F018111C0CF982F9554B7
:100E4000933018F09052933028F40C5F1F4FFFE35B
:100E5000F9830DC0833631F0833771F0833509F0A3
:100E60005EC023C0F801808189830E5F1F4F442438
:100E70004394512C540115C03801F2E06F0E711CDF
:100E8000F801A080B18026FF03C0652D70E002C08C
:100E90006FEF7FEFC5012C870E9495082C0183011D
:100EA0002C856FE7262E222218C03801F2E06F0E43
:100EB000711CF801A080B18026FF03C0652D70E091
:100EC00002C06FEF7FEFC5012C870E948A082C01BA
:100ED0002C8550E8252E222A830123FC1CC006C045
:100EE000B70180E290E00E94A0083A94832D90E040
:100EF00048165906A8F30FC0F50127FC859127FE77
:100F000081915F01B70190E00E94A00831103A94EE
:100F1000F1E04F1A51084114510471F7EDC08436C5
:100F200011F0893641F5F80127FF07C06081718112
:100F3000828193810C5F1F4F08C060817181882777
:100F400077FD8095982F0E5F1F4F4FE6B42EB2228B
:100F500097FF09C090958095709561957F4F8F4F51
:100F60009F4FF0E8BF2A2AE030E0A4010E94CC089D
:100F7000A82EA81843C0853731F43FEEB32EB22215
:100F80002AE030E024C099EFB92EB2228F36B9F0B2
:100F900020F4883509F0B3C00DC0803721F08837C0
:100FA00009F0ADC002C020E1B22AB4FE0BC084E05B
:100FB000B82A08C024FF09C0E6E0BE2A06C028E01F
:100FC00030E005C020E130E002C020E132E0F8016D
:100FD000B7FE07C060817181828193810C5F1F4FD2
:100FE00006C06081718180E090E00E5F1F4FA40118
:100FF0000E94CC08A82EA818FFE7BF22B6FE0BC09F
:101000002B2D2E7FA51450F4B4FE0AC0B2FC08C0EC
:101010002B2D2E7E05C07A2C2B2D03C07A2C01C0DF
:10102000752C24FF0DC0FE01EA0DF11D8081803377
:1010300011F4297E09C022FF06C07394739404C082
:10104000822F867809F0739423FD14C020FF0FC00F
:101050005A2C731460F4530C5718732C08C0B70142
:1010600080E290E02C870E94A00873942C85731472
:10107000B0F304C0731410F4371801C0312C24FFEE
:1010800012C0B70180E390E02C870E94A0082C8555
:1010900022FF1EC021FF03C088E590E002C088E760
:1010A00090E0B7010CC0822F867891F021FD02C03C
:1010B00080E201C08BE227FD8DE2B70190E00E9443
:1010C000A00806C0B70180E390E00E94A0085A94EF
:1010D000A514C0F3AA94F401EA0DF11DB7018081B3
:1010E00090E00E94A008A110F5CF06C0B70180E2F1
:1010F00090E00E94A0083A943110F8CF43CEF70157
:101100002681378102C02FEF3FEFC9012C96E2E123
:101110000C944609FC010590615070400110D8F70D
:10112000809590958E0F9F1F0895FC01615070402F
:1011300001900110D8F7809590958E0F9F1F08950C
:101140000F931F93CF93DF938C01EB018B8181FD74
:1011500003C00FEF1FEF1AC082FF0DC02E813F8129
:101160008C819D812817390764F4E881F981019306
:10117000F983E88306C0E885F985802F0995892BD6
:1011800041F78E819F8101969F838E83C801DF91F5
:10119000CF911F910F910895FA01AA27283051F19C
:1011A000203181F1E8946F936E7F6E5F7F4F8F4F98
:1011B0009F4FAF4FB1E03ED0B4E03CD0670F781FF7
:1011C000891F9A1FA11D680F791F8A1F911DA11DDC
:1011D0006A0F711D811D911DA11D20D009F4689415
:1011E0003F912AE0269F11243019305D3193DEF6BD
:1011F000CF010895462F4770405D4193B3E00FD073
:10120000C9F7F6CF462F4F70405D4A3318F0495D5D
:1012100031FD4052419302D0A9F7EACFB4E0A69540
:101220009795879577956795BA95C9F70097610562
:10123000710508959B01AC010A2E069457954795B8
:1012400037952795BA95C9F7620F731F841F951FAD
:10125000A01D08952F923F924F925F926F927F92BE
:101260008F929F92AF92BF92CF92DF92EF92FF92B6
:101270000F931F93CF93DF93CDB7DEB7CA1BDB0B62
:101280000FB6F894DEBF0FBECDBF09942A88398807
:1012900048885F846E847D848C849B84AA84B9840E
:1012A000C884DF80EE80FD800C811B81AA81B9811A
:1012B000CE0FD11D0FB6F894DEBF0FBECDBFED012E
:0612C0000895F894FFCF31
:1012C6003031323334353637383941424344454676
:1012D6000063616E327573622D312E3100245645DE
:1012E600522C2573002456455200245300244900ED
:00000001FF
